{
  "contractName": "BathToken",
  "abi": [
    {
      "anonymous": false,
      "inputs": [
        {
          "indexed": true,
          "internalType": "address",
          "name": "owner",
          "type": "address"
        },
        {
          "indexed": true,
          "internalType": "address",
          "name": "spender",
          "type": "address"
        },
        {
          "indexed": false,
          "internalType": "uint256",
          "name": "value",
          "type": "uint256"
        }
      ],
      "name": "Approval",
      "type": "event"
    },
    {
      "anonymous": false,
      "inputs": [
        {
          "indexed": false,
          "internalType": "uint256",
          "name": "depositedAmt",
          "type": "uint256"
        },
        {
          "indexed": false,
          "internalType": "contract IERC20",
          "name": "asset",
          "type": "address"
        },
        {
          "indexed": false,
          "internalType": "uint256",
          "name": "sharesReceived",
          "type": "uint256"
        },
        {
          "indexed": false,
          "internalType": "address",
          "name": "depositor",
          "type": "address"
        }
      ],
      "name": "Deposit",
      "type": "event"
    },
    {
      "anonymous": false,
      "inputs": [
        {
          "indexed": false,
          "internalType": "uint256",
          "name": "timeOfInit",
          "type": "uint256"
        }
      ],
      "name": "LogInit",
      "type": "event"
    },
    {
      "anonymous": false,
      "inputs": [
        {
          "indexed": true,
          "internalType": "address",
          "name": "from",
          "type": "address"
        },
        {
          "indexed": true,
          "internalType": "address",
          "name": "to",
          "type": "address"
        },
        {
          "indexed": false,
          "internalType": "uint256",
          "name": "value",
          "type": "uint256"
        }
      ],
      "name": "Transfer",
      "type": "event"
    },
    {
      "anonymous": false,
      "inputs": [
        {
          "indexed": false,
          "internalType": "uint256",
          "name": "amountWithdrawn",
          "type": "uint256"
        },
        {
          "indexed": false,
          "internalType": "contract IERC20",
          "name": "asset",
          "type": "address"
        },
        {
          "indexed": false,
          "internalType": "uint256",
          "name": "sharesWithdrawn",
          "type": "uint256"
        },
        {
          "indexed": false,
          "internalType": "address",
          "name": "withdrawer",
          "type": "address"
        },
        {
          "indexed": false,
          "internalType": "uint256",
          "name": "fee",
          "type": "uint256"
        },
        {
          "indexed": false,
          "internalType": "address",
          "name": "feeTo",
          "type": "address"
        }
      ],
      "name": "Withdraw",
      "type": "event"
    },
    {
      "inputs": [],
      "name": "DOMAIN_SEPARATOR",
      "outputs": [
        {
          "internalType": "bytes32",
          "name": "",
          "type": "bytes32"
        }
      ],
      "stateMutability": "view",
      "type": "function"
    },
    {
      "inputs": [],
      "name": "PERMIT_TYPEHASH",
      "outputs": [
        {
          "internalType": "bytes32",
          "name": "",
          "type": "bytes32"
        }
      ],
      "stateMutability": "view",
      "type": "function"
    },
    {
      "inputs": [],
      "name": "RubiconMarketAddress",
      "outputs": [
        {
          "internalType": "address",
          "name": "",
          "type": "address"
        }
      ],
      "stateMutability": "view",
      "type": "function"
    },
    {
      "inputs": [
        {
          "internalType": "address",
          "name": "",
          "type": "address"
        },
        {
          "internalType": "address",
          "name": "",
          "type": "address"
        }
      ],
      "name": "allowance",
      "outputs": [
        {
          "internalType": "uint256",
          "name": "",
          "type": "uint256"
        }
      ],
      "stateMutability": "view",
      "type": "function"
    },
    {
      "inputs": [
        {
          "internalType": "address",
          "name": "",
          "type": "address"
        }
      ],
      "name": "balanceOf",
      "outputs": [
        {
          "internalType": "uint256",
          "name": "",
          "type": "uint256"
        }
      ],
      "stateMutability": "view",
      "type": "function"
    },
    {
      "inputs": [],
      "name": "bathHouse",
      "outputs": [
        {
          "internalType": "address",
          "name": "",
          "type": "address"
        }
      ],
      "stateMutability": "view",
      "type": "function"
    },
    {
      "inputs": [],
      "name": "decimals",
      "outputs": [
        {
          "internalType": "uint8",
          "name": "",
          "type": "uint8"
        }
      ],
      "stateMutability": "view",
      "type": "function"
    },
    {
      "inputs": [],
      "name": "feeBPS",
      "outputs": [
        {
          "internalType": "uint256",
          "name": "",
          "type": "uint256"
        }
      ],
      "stateMutability": "view",
      "type": "function"
    },
    {
      "inputs": [],
      "name": "feeTo",
      "outputs": [
        {
          "internalType": "address",
          "name": "",
          "type": "address"
        }
      ],
      "stateMutability": "view",
      "type": "function"
    },
    {
      "inputs": [],
      "name": "initialized",
      "outputs": [
        {
          "internalType": "bool",
          "name": "",
          "type": "bool"
        }
      ],
      "stateMutability": "view",
      "type": "function"
    },
    {
      "inputs": [],
      "name": "name",
      "outputs": [
        {
          "internalType": "string",
          "name": "",
          "type": "string"
        }
      ],
      "stateMutability": "view",
      "type": "function"
    },
    {
      "inputs": [
        {
          "internalType": "address",
          "name": "",
          "type": "address"
        }
      ],
      "name": "nonces",
      "outputs": [
        {
          "internalType": "uint256",
          "name": "",
          "type": "uint256"
        }
      ],
      "stateMutability": "view",
      "type": "function"
    },
    {
      "inputs": [],
      "name": "outstandingAmount",
      "outputs": [
        {
          "internalType": "uint256",
          "name": "",
          "type": "uint256"
        }
      ],
      "stateMutability": "view",
      "type": "function"
    },
    {
      "inputs": [],
      "name": "symbol",
      "outputs": [
        {
          "internalType": "string",
          "name": "",
          "type": "string"
        }
      ],
      "stateMutability": "view",
      "type": "function"
    },
    {
      "inputs": [],
      "name": "totalSupply",
      "outputs": [
        {
          "internalType": "uint256",
          "name": "",
          "type": "uint256"
        }
      ],
      "stateMutability": "view",
      "type": "function"
    },
    {
      "inputs": [],
      "name": "underlyingToken",
      "outputs": [
        {
          "internalType": "contract IERC20",
          "name": "",
          "type": "address"
        }
      ],
      "stateMutability": "view",
      "type": "function"
    },
    {
      "inputs": [
        {
          "internalType": "string",
          "name": "bathName",
          "type": "string"
        },
        {
          "internalType": "contract IERC20",
          "name": "token",
          "type": "address"
        },
        {
          "internalType": "address",
          "name": "market",
          "type": "address"
        },
        {
          "internalType": "address",
          "name": "_bathHouse",
          "type": "address"
        },
        {
          "internalType": "address",
          "name": "_feeTo",
          "type": "address"
        }
      ],
      "name": "initialize",
      "outputs": [],
      "stateMutability": "nonpayable",
      "type": "function"
    },
    {
      "inputs": [
        {
          "internalType": "address",
          "name": "newRubiconMarket",
          "type": "address"
        }
      ],
      "name": "setMarket",
      "outputs": [],
      "stateMutability": "nonpayable",
      "type": "function"
    },
    {
      "inputs": [
        {
          "internalType": "address",
          "name": "newBathHouse",
          "type": "address"
        }
      ],
      "name": "setBathHouse",
      "outputs": [],
      "stateMutability": "nonpayable",
      "type": "function"
    },
    {
      "inputs": [
        {
          "internalType": "uint256",
          "name": "_feeBPS",
          "type": "uint256"
        }
      ],
      "name": "setFeeBPS",
      "outputs": [],
      "stateMutability": "nonpayable",
      "type": "function"
    },
    {
      "inputs": [
        {
          "internalType": "address",
          "name": "_feeTo",
          "type": "address"
        }
      ],
      "name": "setFeeTo",
      "outputs": [],
      "stateMutability": "nonpayable",
      "type": "function"
    },
    {
      "inputs": [],
      "name": "underlying",
      "outputs": [
        {
          "internalType": "address",
          "name": "",
          "type": "address"
        }
      ],
      "stateMutability": "view",
      "type": "function"
    },
    {
      "inputs": [],
      "name": "underlyingBalance",
      "outputs": [
        {
          "internalType": "uint256",
          "name": "",
          "type": "uint256"
        }
      ],
      "stateMutability": "view",
      "type": "function"
    },
    {
      "inputs": [
        {
          "internalType": "uint256",
          "name": "id",
          "type": "uint256"
        },
        {
          "internalType": "uint256",
          "name": "amt",
          "type": "uint256"
        }
      ],
      "name": "cancel",
      "outputs": [],
      "stateMutability": "nonpayable",
      "type": "function"
    },
    {
      "inputs": [
        {
          "internalType": "uint256",
          "name": "amt",
          "type": "uint256"
        }
      ],
      "name": "removeFilledTradeAmount",
      "outputs": [],
      "stateMutability": "nonpayable",
      "type": "function"
    },
    {
      "inputs": [
        {
          "internalType": "uint256",
          "name": "pay_amt",
          "type": "uint256"
        },
        {
          "internalType": "contract ERC20",
          "name": "pay_gem",
          "type": "address"
        },
        {
          "internalType": "uint256",
          "name": "buy_amt",
          "type": "uint256"
        },
        {
          "internalType": "contract ERC20",
          "name": "buy_gem",
          "type": "address"
        }
      ],
      "name": "placeOffer",
      "outputs": [
        {
          "internalType": "uint256",
          "name": "",
          "type": "uint256"
        }
      ],
      "stateMutability": "nonpayable",
      "type": "function"
    },
    {
      "inputs": [
        {
          "internalType": "address",
          "name": "sisterBath",
          "type": "address"
        },
        {
          "internalType": "address",
          "name": "underlyingAsset",
          "type": "address"
        },
        {
          "internalType": "uint256",
          "name": "stratProportion",
          "type": "uint256"
        }
      ],
      "name": "rebalance",
      "outputs": [],
      "stateMutability": "nonpayable",
      "type": "function"
    },
    {
      "inputs": [
        {
          "internalType": "uint256",
          "name": "_amount",
          "type": "uint256"
        }
      ],
      "name": "deposit",
      "outputs": [],
      "stateMutability": "nonpayable",
      "type": "function"
    },
    {
      "inputs": [
        {
          "internalType": "uint256",
          "name": "_shares",
          "type": "uint256"
        }
      ],
      "name": "withdraw",
      "outputs": [],
      "stateMutability": "nonpayable",
      "type": "function"
    },
    {
      "inputs": [
        {
          "internalType": "address",
          "name": "spender",
          "type": "address"
        },
        {
          "internalType": "uint256",
          "name": "value",
          "type": "uint256"
        }
      ],
      "name": "approve",
      "outputs": [
        {
          "internalType": "bool",
          "name": "",
          "type": "bool"
        }
      ],
      "stateMutability": "nonpayable",
      "type": "function"
    },
    {
      "inputs": [
        {
          "internalType": "address",
          "name": "to",
          "type": "address"
        },
        {
          "internalType": "uint256",
          "name": "value",
          "type": "uint256"
        }
      ],
      "name": "transfer",
      "outputs": [
        {
          "internalType": "bool",
          "name": "",
          "type": "bool"
        }
      ],
      "stateMutability": "nonpayable",
      "type": "function"
    },
    {
      "inputs": [
        {
          "internalType": "address",
          "name": "from",
          "type": "address"
        },
        {
          "internalType": "address",
          "name": "to",
          "type": "address"
        },
        {
          "internalType": "uint256",
          "name": "value",
          "type": "uint256"
        }
      ],
      "name": "transferFrom",
      "outputs": [
        {
          "internalType": "bool",
          "name": "",
          "type": "bool"
        }
      ],
      "stateMutability": "nonpayable",
      "type": "function"
    },
    {
      "inputs": [
        {
          "internalType": "address",
          "name": "owner",
          "type": "address"
        },
        {
          "internalType": "address",
          "name": "spender",
          "type": "address"
        },
        {
          "internalType": "uint256",
          "name": "value",
          "type": "uint256"
        },
        {
          "internalType": "uint256",
          "name": "deadline",
          "type": "uint256"
        },
        {
          "internalType": "uint8",
          "name": "v",
          "type": "uint8"
        },
        {
          "internalType": "bytes32",
          "name": "r",
          "type": "bytes32"
        },
        {
          "internalType": "bytes32",
          "name": "s",
          "type": "bytes32"
        }
      ],
      "name": "permit",
      "outputs": [],
      "stateMutability": "nonpayable",
      "type": "function"
    }
  ],
  "bytecode": "0x608060405234801561001057600080fd5b5061206e806100206000396000f3fe608060405234801561001057600080fd5b50600436106101fa5760003560e01c8063604b6a9c1161011a57806395d89b41116100ad578063b6b55f251161007c578063b6b55f25146105f9578063d505accf14610616578063dd62ed3e14610667578063ebbc208214610695578063f46901ed146106bb576101fa565b806395d89b4114610587578063a9059cbb1461058f578063b3f865f7146105bb578063b42337c9146105f1576101fa565b80636f307dc3116100e95780636f307dc31461051657806370a082311461051e5780637ecebe0014610544578063831d26781461056a576101fa565b8063604b6a9c146104c357806360c38b28146104e057806360f71b24146104e85780636dcea85f146104f0576101fa565b806323b872dd1161019257806330adf81f1161016157806330adf81f1461048d578063313ce567146104955780633644e515146104b357806359356c5c146104bb576101fa565b806323b872dd146103f65780632495a5991461042c578063271e4426146104345780632e1a7d4d14610470576101fa565b80630b885ac3116101ce5780630b885ac314610305578063158ef93e146103cc57806318160ddd146103d45780631a1c6e53146103ee576101fa565b8062efa895146101ff578063017e7e581461022457806306fdde0314610248578063095ea7b3146102c5575b600080fd5b6102226004803603604081101561021557600080fd5b50803590602001356106e1565b005b61022c61082f565b604080516001600160a01b039092168252519081900360200190f35b61025061083e565b6040805160208082528351818301528351919283929083019185019080838360005b8381101561028a578181015183820152602001610272565b50505050905090810190601f1680156102b75780820380516001836020036101000a031916815260200191505b509250505060405180910390f35b6102f1600480360360408110156102db57600080fd5b506001600160a01b0381351690602001356108c9565b604080519115158252519081900360200190f35b610222600480360360a081101561031b57600080fd5b81019060208101813564010000000081111561033657600080fd5b82018360208201111561034857600080fd5b8035906020019184600183028401116401000000008311171561036a57600080fd5b91908080601f016020809104026020016040519081016040528093929190818152602001838380828437600092019190915250929550506001600160a01b038335811694506020840135811693604081013582169350606001351690506108e0565b6102f1610c81565b6103dc610c8a565b60408051918252519081900360200190f35b6103dc610c90565b6102f16004803603606081101561040c57600080fd5b506001600160a01b03813581169160208101359091169060400135610c96565b61022c610d2a565b6103dc6004803603608081101561044a57600080fd5b508035906001600160a01b03602082013581169160408101359160609091013516610d39565b6102226004803603602081101561048657600080fd5b5035610ef7565b6103dc6110c7565b61049d6110eb565b6040805160ff9092168252519081900360200190f35b6103dc6110f4565b6103dc6110fa565b610222600480360360208110156104d957600080fd5b50356111e0565b61022c61120a565b61022c611219565b6102226004803603602081101561050657600080fd5b50356001600160a01b031661122d565b61022c61127a565b6103dc6004803603602081101561053457600080fd5b50356001600160a01b031661129a565b6103dc6004803603602081101561055a57600080fd5b50356001600160a01b03166112ac565b6102226004803603602081101561058057600080fd5b50356112be565b61025061138d565b6102f1600480360360408110156105a557600080fd5b506001600160a01b0381351690602001356113e7565b610222600480360360608110156105d157600080fd5b506001600160a01b038135811691602081013590911690604001356113f4565b6103dc6116d2565b6102226004803603602081101561060f57600080fd5b50356116d8565b610222600480360360e081101561062c57600080fd5b506001600160a01b03813581169160208101359091169060408101359060608101359060ff6080820135169060a08101359060c001356118ff565b6103dc6004803603604081101561067d57600080fd5b506001600160a01b0381358116916020013516611b01565b610222600480360360208110156106ab57600080fd5b50356001600160a01b0316611b1e565b610222600480360360208110156106d157600080fd5b50356001600160a01b0316611b65565b600480546040805163ca3a86cd60e01b81523393810193909352516001600160a01b039091169163ca3a86cd916024808301926020929190829003018186803b15801561072d57600080fd5b505afa158015610741573d6000803e3d6000fd5b505050506040513d602081101561075757600080fd5b5051151560011461079d576040805162461bcd60e51b81526020600482018190526024820152600080516020612019833981519152604482015290519081900360640190fd5b6009546107aa9082611bac565b600955600354604080516340e58ee560e01b81526004810185905290516101009092046001600160a01b0316916340e58ee5916024808201926020929091908290030181600087803b1580156107ff57600080fd5b505af1158015610813573d6000803e3d6000fd5b505050506040513d602081101561082957600080fd5b50505050565b6005546001600160a01b031681565b6002805460408051602060018416156101000260001901909316849004601f810184900484028201840190925281815292918301828280156108c15780601f10610896576101008083540402835291602001916108c1565b820191906000526020600020905b8154815290600101906020018083116108a457829003601f168201915b505050505081565b60006108d6338484611c09565b5060015b92915050565b60005460ff16156108f057600080fd5b8451610903906001906020880190611f56565b50600680546001600160a01b03199081166001600160a01b038781169190911790925560038054610100600160a81b031916610100878516810291909117909155600480549092169285169290921790556040516002805446937f8b73c3c69bb8fe3d512ecc4cf759cc79239f7b179b0ffacaa9a75d522b39400f9391829184916001811615909102600019011681900480156109d75780601f106109b55761010080835404028352918201916109d7565b820191906000526020600020905b8154815290600101906020018083116109c3575b505060408051918290038220828201825260018352603160f81b602093840152815180840196909652858201527fc89efdaa54c0f20c7adf612882df0950f5a951637e0307cdcb4c672f298b8bc66060860152608085018690523060a0808701919091528151808703909101815260c0860180835281519190930120600e5561010085019052600c908190526b42617468546f6b656e20763160a01b60e0909401938452610a8a93600293509150611f56565b5060038054601260ff19909116179081905560408051630ac77c9f60e11b815290516101009092046001600160a01b03169163158ef93e91600480820192602092909190829003018186803b158015610ae257600080fd5b505afa158015610af6573d6000803e3d6000fd5b505050506040513d6020811015610b0c57600080fd5b50518015610b8457506004805460408051630ac77c9f60e11b815290516001600160a01b039092169263158ef93e928282019260209290829003018186803b158015610b5757600080fd5b505afa158015610b6b573d6000803e3d6000fd5b505050506040513d6020811015610b8157600080fd5b50515b610b8d57600080fd5b6003546040805163095ea7b360e01b81526101009092046001600160a01b039081166004840152600019602484015290519087169163095ea7b39160448083019260209291908290030181600087803b158015610be957600080fd5b505af1158015610bfd573d6000803e3d6000fd5b505050506040513d6020811015610c1357600080fd5b50506040805142815290517f62d3d1f1d9801a81e18d50c29dbd4af6f8aa76a0859f432482ac2574e3d2a4f69181900360200190a150600580546001600160a01b0319166001600160a01b0392909216919091179055505060006007819055805460ff191660011790555050565b60005460ff1681565b60085481565b60075481565b6001600160a01b0383166000908152600d6020908152604080832033845290915281205460001914610d15576001600160a01b0384166000908152600d60209081526040808320338452909152902054610cf09083611bac565b6001600160a01b0385166000908152600d602090815260408083203384529091529020555b610d20848484611c6b565b5060019392505050565b6006546001600160a01b031681565b600480546040805163ca3a86cd60e01b81523393810193909352516000926001600160a01b039092169163ca3a86cd916024808301926020929190829003018186803b158015610d8857600080fd5b505afa158015610d9c573d6000803e3d6000fd5b505050506040513d6020811015610db257600080fd5b50511515600114610df8576040805162461bcd60e51b81526020600482018190526024820152600080516020612019833981519152604482015290519081900360640190fd5b841580610e0c57506001600160a01b038416155b80610e15575082155b80610e2757506001600160a01b038216155b15610e3457506000610eef565b60035460408051633869bc0560e21b8152600481018890526001600160a01b03878116602483015260448201879052858116606483015260006084830181905260a48301819052925192936101009004169163e1a6f0149160c48082019260209290919082900301818787803b158015610ead57600080fd5b505af1158015610ec1573d6000803e3d6000fd5b505050506040513d6020811015610ed757600080fd5b5051600954909150610ee99087611d19565b60095590505b949350505050565b6000610f17600854610f1184610f0b6110fa565b90611d7a565b90611dd3565b9050610f233383611e3a565b6000610f40612710610f1160075485611d7a90919063ffffffff16565b6006546005546040805163a9059cbb60e01b81526001600160a01b03928316600482015260248101859052905193945091169163a9059cbb916044808201926020929091908290030181600087803b158015610f9b57600080fd5b505af1158015610faf573d6000803e3d6000fd5b505050506040513d6020811015610fc557600080fd5b50506006546001600160a01b031663a9059cbb33610fe38585611bac565b6040518363ffffffff1660e01b815260040180836001600160a01b0316815260200182815260200192505050602060405180830381600087803b15801561102957600080fd5b505af115801561103d573d6000803e3d6000fd5b505050506040513d602081101561105357600080fd5b507fbfc577cf5ef658dea5173e70f29db15fe196fad3343fd3db32db2234980a5a1390506110818383611bac565b600654600554604080519384526001600160a01b03928316602085015283810188905233606085015260808401869052911660a0830152519081900360c00190a1505050565b7f6e71edae12b1b97f4d1f60370fef10105fa2faae0126114a169c64845d6126c981565b60035460ff1681565b600e5481565b6000805460ff16611152576040805162461bcd60e51b815260206004820152601960248201527f42617468546f6b656e206e6f7420696e697469616c697a656400000000000000604482015290519081900360640190fd5b600654604080516370a0823160e01b815230600482015290516000926001600160a01b0316916370a08231916024808301926020929190829003018186803b15801561119d57600080fd5b505afa1580156111b1573d6000803e3d6000fd5b505050506040513d60208110156111c757600080fd5b50516009549091506111da908290611d19565b91505090565b6004546001600160a01b0316331480156111fc575060005460ff165b61120557600080fd5b600755565b6004546001600160a01b031681565b60035461010090046001600160a01b031681565b6004546001600160a01b031633148015611249575060005460ff165b61125257600080fd5b600380546001600160a01b0390921661010002610100600160a81b0319909216919091179055565b6000805460ff1661128a57600080fd5b506006546001600160a01b031690565b600c6020526000908152604090205481565b600f6020526000908152604090205481565b600480546040805163ca3a86cd60e01b81523393810193909352516001600160a01b039091169163ca3a86cd916024808301926020929190829003018186803b15801561130a57600080fd5b505afa15801561131e573d6000803e3d6000fd5b505050506040513d602081101561133457600080fd5b5051151560011461137a576040805162461bcd60e51b81526020600482018190526024820152600080516020612019833981519152604482015290519081900360640190fd5b6009546113879082611bac565b60095550565b60018054604080516020600284861615610100026000190190941693909304601f810184900484028201840190925281815292918301828280156108c15780601f10610896576101008083540402835291602001916108c1565b60006108d6338484611c6b565b600480546040805163ca3a86cd60e01b81523393810193909352516001600160a01b039091169163ca3a86cd916024808301926020929190829003018186803b15801561144057600080fd5b505afa158015611454573d6000803e3d6000fd5b505050506040513d602081101561146a57600080fd5b505115156001146114b0576040805162461bcd60e51b81526020600482018190526024820152600080516020612019833981519152604482015290519081900360640190fd5b60005460ff166114bf57600080fd5b600061154a612710610f11856001600160a01b03166370a08231306040518263ffffffff1660e01b815260040180826001600160a01b0316815260200191505060206040518083038186803b15801561151757600080fd5b505afa15801561152b573d6000803e3d6000fd5b505050506040513d602081101561154157600080fd5b50518590611d7a565b9050826001600160a01b031663a9059cbb856115df84876001600160a01b03166370a08231306040518263ffffffff1660e01b815260040180826001600160a01b0316815260200191505060206040518083038186803b1580156115ad57600080fd5b505afa1580156115c1573d6000803e3d6000fd5b505050506040513d60208110156115d757600080fd5b505190611bac565b6040518363ffffffff1660e01b815260040180836001600160a01b0316815260200182815260200192505050602060405180830381600087803b15801561162557600080fd5b505af1158015611639573d6000803e3d6000fd5b505050506040513d602081101561164f57600080fd5b50506040805163a9059cbb60e01b81523360048201526024810183905290516001600160a01b0385169163a9059cbb9160448083019260209291908290030181600087803b1580156116a057600080fd5b505af11580156116b4573d6000803e3d6000fd5b505050506040513d60208110156116ca57600080fd5b505050505050565b60095481565b60006116e26110fa565b600654604080516370a0823160e01b815230600482015290519293506000926001600160a01b03909216916370a0823191602480820192602092909190829003018186803b15801561173357600080fd5b505afa158015611747573d6000803e3d6000fd5b505050506040513d602081101561175d57600080fd5b5051600654604080516323b872dd60e01b81523360048201523060248201526044810187905290519293506001600160a01b03909116916323b872dd916064808201926020929091908290030181600087803b1580156117bc57600080fd5b505af11580156117d0573d6000803e3d6000fd5b505050506040513d60208110156117e657600080fd5b5050600654604080516370a0823160e01b815230600482015290516000926001600160a01b0316916370a08231916024808301926020929190829003018186803b15801561183357600080fd5b505afa158015611847573d6000803e3d6000fd5b505050506040513d602081101561185d57600080fd5b5051905061186b8183611bac565b935060006008546000141561188157508361189d565b61189a84610f1160085488611d7a90919063ffffffff16565b90505b6118a73382611ecb565b600654604080518781526001600160a01b039092166020830152818101839052336060830152517f05e57fa62d890603d85944c963ddc7fbe77cde5ea69cad7033fc6f76b7ddd2ab9181900360800190a15050505050565b42841015611949576040805162461bcd60e51b815260206004820152601260248201527118985d1a151bdad95b8e881156141254915160721b604482015290519081900360640190fd5b600e546001600160a01b038089166000818152600f602090815260408083208054600180820190925582517f6e71edae12b1b97f4d1f60370fef10105fa2faae0126114a169c64845d6126c98186015280840196909652958d166060860152608085018c905260a085019590955260c08085018b90528151808603909101815260e08501825280519083012061190160f01b6101008601526101028501969096526101228085019690965280518085039096018652610142840180825286519683019690962095839052610162840180825286905260ff89166101828501526101a284018890526101c28401879052519193926101e280820193601f1981019281900390910190855afa158015611a64573d6000803e3d6000fd5b5050604051601f1901519150506001600160a01b03811615801590611a9a5750886001600160a01b0316816001600160a01b0316145b611aeb576040805162461bcd60e51b815260206004820152601c60248201527f62617468546f6b656e3a20494e56414c49445f5349474e415455524500000000604482015290519081900360640190fd5b611af6898989611c09565b505050505050505050565b600d60209081526000928352604080842090915290825290205481565b6004546001600160a01b031633148015611b3a575060005460ff165b611b4357600080fd5b600480546001600160a01b0319166001600160a01b0392909216919091179055565b6004546001600160a01b031633148015611b81575060005460ff165b611b8a57600080fd5b600580546001600160a01b0319166001600160a01b0392909216919091179055565b600082821115611c03576040805162461bcd60e51b815260206004820152601e60248201527f536166654d6174683a207375627472616374696f6e206f766572666c6f770000604482015290519081900360640190fd5b50900390565b6001600160a01b038084166000818152600d6020908152604080832094871680845294825291829020859055815185815291517f8c5be1e5ebec7d5bd14f71427d1e84f3dd0314c0f7b2291e5b200ac8c7c3b9259281900390910190a3505050565b6001600160a01b0383166000908152600c6020526040902054611c8e9082611bac565b6001600160a01b038085166000908152600c60205260408082209390935590841681522054611cbd9082611d19565b6001600160a01b038084166000818152600c602090815260409182902094909455805185815290519193928716927fddf252ad1be2c89b69c2b068fc378daa952ba7f163c4a11628f55a4df523b3ef92918290030190a3505050565b600082820183811015611d73576040805162461bcd60e51b815260206004820152601b60248201527f536166654d6174683a206164646974696f6e206f766572666c6f770000000000604482015290519081900360640190fd5b9392505050565b600082611d89575060006108da565b82820282848281611d9657fe5b0414611d735760405162461bcd60e51b8152600401808060200182810382526021815260200180611ff86021913960400191505060405180910390fd5b6000808211611e29576040805162461bcd60e51b815260206004820152601a60248201527f536166654d6174683a206469766973696f6e206279207a65726f000000000000604482015290519081900360640190fd5b818381611e3257fe5b049392505050565b6001600160a01b0382166000908152600c6020526040902054611e5d9082611bac565b6001600160a01b0383166000908152600c6020526040902055600854611e839082611bac565b6008556040805182815290516000916001600160a01b038516917fddf252ad1be2c89b69c2b068fc378daa952ba7f163c4a11628f55a4df523b3ef9181900360200190a35050565b600854611ed89082611d19565b6008556001600160a01b0382166000908152600c6020526040902054611efe9082611d19565b6001600160a01b0383166000818152600c602090815260408083209490945583518581529351929391927fddf252ad1be2c89b69c2b068fc378daa952ba7f163c4a11628f55a4df523b3ef9281900390910190a35050565b828054600181600116156101000203166002900490600052602060002090601f016020900481019282611f8c5760008555611fd2565b82601f10611fa557805160ff1916838001178555611fd2565b82800160010185558215611fd2579182015b82811115611fd2578251825591602001919060010190611fb7565b50611fde929150611fe2565b5090565b5b80821115611fde5760008155600101611fe356fe536166654d6174683a206d756c7469706c69636174696f6e206f766572666c6f776e6f7420616e20617070726f7665642070616972202d2062617468546f6b656ea2646970667358221220d12496011c0fb3efd502cb078852686f8c0adde241f84c85235de347db8a549f64736f6c63430007060033",
  "immutableReferences": {},
  "source": "// SPDX-License-Identifier: BUSL-1.1\n\n/// @author Benjamin Hughes - Rubicon\n/// @notice This contract represents a single-asset liquidity pool for Rubicon Pools\n/// @notice Any user can deposit assets into this pool and earn yield from successful strategist market making with their liquidity\n/// @notice This contract looks to both BathPairs and the BathHouse as its admin\n\npragma solidity =0.7.6;\n\nimport \"@openzeppelin/contracts/token/ERC20/IERC20.sol\";\nimport \"@openzeppelin/contracts/math/SafeMath.sol\";\nimport \"../RubiconMarket.sol\";\nimport \"./BathHouse.sol\";\n\ncontract BathToken {\n    using SafeMath for uint256;\n    bool public initialized;\n\n    string public symbol;\n    string public name;\n    uint8 public decimals;\n\n    address public RubiconMarketAddress;\n    address public bathHouse; // admin\n    address public feeTo;\n    IERC20 public underlyingToken;\n    uint256 public feeBPS;\n\n    uint256 public totalSupply;\n    uint256 public outstandingAmount; // quantity of underlyingToken that is in the orderbook and still in pools\n    uint256[] outstandingIDs;\n    mapping(uint256 => uint256) id2Ind;\n\n    mapping(address => uint256) public balanceOf;\n    mapping(address => mapping(address => uint256)) public allowance;\n\n    bytes32 public DOMAIN_SEPARATOR;\n    // keccak256(\"Permit(address owner,address spender,uint256 value,uint256 nonce,uint256 deadline)\");\n    bytes32 public constant PERMIT_TYPEHASH =\n        0x6e71edae12b1b97f4d1f60370fef10105fa2faae0126114a169c64845d6126c9;\n    mapping(address => uint256) public nonces;\n\n    event Approval(\n        address indexed owner,\n        address indexed spender,\n        uint256 value\n    );\n    event Transfer(address indexed from, address indexed to, uint256 value);\n    event LogInit(uint256 timeOfInit);\n    event Deposit(\n        uint256 depositedAmt,\n        IERC20 asset,\n        uint256 sharesReceived,\n        address depositor\n    );\n    event Withdraw(\n        uint256 amountWithdrawn,\n        IERC20 asset,\n        uint256 sharesWithdrawn,\n        address withdrawer,\n        uint256 fee,\n        address feeTo\n    );\n\n    /// @dev Proxy-safe initialization of storage\n    function initialize(\n        string memory bathName,\n        IERC20 token,\n        address market,\n        address _bathHouse,\n        address _feeTo\n    ) external {\n        require(!initialized);\n        symbol = bathName;\n        underlyingToken = token;\n        RubiconMarketAddress = market;\n        bathHouse = _bathHouse;\n\n        uint256 chainId;\n        assembly {\n            chainId := chainid()\n        }\n        DOMAIN_SEPARATOR = keccak256(\n            abi.encode(\n                keccak256(\n                    \"EIP712Domain(string name,string version,uint256 chainId,address verifyingContract)\"\n                ),\n                keccak256(bytes(name)),\n                keccak256(bytes(\"1\")),\n                chainId,\n                address(this)\n            )\n        );\n        name = \"BathToken v1\";\n        decimals = 18;\n\n        require(\n            RubiconMarket(RubiconMarketAddress).initialized() &&\n                BathHouse(bathHouse).initialized()\n        );\n\n        // Add infinite approval of Rubicon Market for this asset\n\n        IERC20(address(token)).approve(RubiconMarketAddress, 2**256 - 1);\n        emit LogInit(block.timestamp);\n\n        feeTo = _feeTo; //BathHouse admin is initial recipient\n        feeBPS = 0; //Fee set to zero\n\n        initialized = true;\n    }\n\n    modifier onlyPair {\n        require(\n            BathHouse(bathHouse).isApprovedPair(msg.sender) == true,\n            \"not an approved pair - bathToken\"\n        );\n        _;\n    }\n\n    function setMarket(address newRubiconMarket) external {\n        require(msg.sender == bathHouse && initialized);\n        RubiconMarketAddress = newRubiconMarket;\n    }\n\n    function setBathHouse(address newBathHouse) external {\n        require(msg.sender == bathHouse && initialized);\n        bathHouse = newBathHouse;\n    }\n\n    function setFeeBPS(uint256 _feeBPS) external {\n        require(msg.sender == bathHouse && initialized);\n        feeBPS = _feeBPS;\n    }\n\n    function setFeeTo(address _feeTo) external {\n        require(msg.sender == bathHouse && initialized);\n        feeTo = _feeTo;\n    }\n\n    function underlying() external view returns (address) {\n        require(initialized);\n        return address(underlyingToken);\n    }\n\n    /// @notice returns the amount of underlying ERC20 tokens in this pool in addition to\n    ///         any tokens that may be outstanding in the Rubicon order book\n    function underlyingBalance() public view returns (uint256) {\n        require(initialized, \"BathToken not initialized\");\n\n        uint256 _pool = IERC20(underlyingToken).balanceOf(address(this));\n        return _pool.add(outstandingAmount);\n    }\n\n    // ** Rubicon Market Functions: **\n    function cancel(uint256 id, uint256 amt) external onlyPair {\n        outstandingAmount = outstandingAmount.sub(amt);\n        RubiconMarket(RubiconMarketAddress).cancel(id);\n    }\n\n    function removeFilledTradeAmount(uint256 amt) external onlyPair {\n        outstandingAmount = outstandingAmount.sub(amt);\n    }\n\n    // function that places a bid/ask in the orderbook for a given pair\n    function placeOffer(\n        uint256 pay_amt,\n        ERC20 pay_gem,\n        uint256 buy_amt,\n        ERC20 buy_gem\n    ) external onlyPair returns (uint256) {\n        // Place an offer in RubiconMarket\n        // If incomplete offer return 0\n        if (\n            pay_amt == 0 ||\n            pay_gem == ERC20(0) ||\n            buy_amt == 0 ||\n            buy_gem == ERC20(0)\n        ) {\n            return 0;\n        }\n\n        uint256 id = RubiconMarket(RubiconMarketAddress).offer(\n            pay_amt,\n            pay_gem,\n            buy_amt,\n            buy_gem,\n            0,\n            false\n        );\n        outstandingAmount = outstandingAmount.add(pay_amt);\n        return (id);\n    }\n\n    // This function returns filled orders to the correct liquidity pool and sends strategist rewards to the Pair\n    function rebalance(\n        address sisterBath,\n        address underlyingAsset, /* sister asset */\n        uint256 stratProportion\n    ) external onlyPair {\n        require(initialized);\n        uint256 stratReward = (\n            stratProportion.mul(\n                IERC20(underlyingAsset).balanceOf(address(this))\n            )\n        )\n        .div(10000);\n        IERC20(underlyingAsset).transfer(\n            sisterBath,\n            IERC20(underlyingAsset).balanceOf(address(this)).sub(stratReward)\n        );\n        IERC20(underlyingAsset).transfer(msg.sender, stratReward);\n    }\n\n    // ** User Entrypoints: **\n    // https://github.com/yearn/yearn-protocol/blob/develop/contracts/vaults/yVault.sol - shoutout yEarn homies\n    function deposit(uint256 _amount) external {\n        uint256 _pool = underlyingBalance();\n        uint256 _before = underlyingToken.balanceOf(address(this));\n\n        underlyingToken.transferFrom(msg.sender, address(this), _amount);\n        uint256 _after = underlyingToken.balanceOf(address(this));\n        _amount = _after.sub(_before); // Additional check for deflationary tokens\n\n        uint256 shares = 0;\n        if (totalSupply == 0) {\n            shares = _amount;\n        } else {\n            shares = (_amount.mul(totalSupply)).div(_pool);\n        }\n        _mint(msg.sender, shares);\n        emit Deposit(_amount, underlyingToken, shares, msg.sender);\n    }\n\n    // No rebalance implementation for lower fees and faster swaps\n    function withdraw(uint256 _shares) external {\n        uint256 r = (underlyingBalance().mul(_shares)).div(totalSupply);\n        _burn(msg.sender, _shares);\n        uint256 _fee = r.mul(feeBPS).div(10000);\n        IERC20(underlyingToken).transfer(feeTo, _fee);\n        underlyingToken.transfer(msg.sender, r.sub(_fee));\n        emit Withdraw(r.sub(_fee), underlyingToken, _shares, msg.sender, _fee, feeTo);\n    }\n\n    // ** Internal Functions **\n\n    function _mint(address to, uint256 value) internal {\n        totalSupply = totalSupply.add(value);\n        balanceOf[to] = balanceOf[to].add(value);\n        emit Transfer(address(0), to, value);\n    }\n\n    function _burn(address from, uint256 value) internal {\n        balanceOf[from] = balanceOf[from].sub(value);\n        totalSupply = totalSupply.sub(value);\n        emit Transfer(from, address(0), value);\n    }\n\n    function _approve(\n        address owner,\n        address spender,\n        uint256 value\n    ) private {\n        allowance[owner][spender] = value;\n        emit Approval(owner, spender, value);\n    }\n\n    function _transfer(\n        address from,\n        address to,\n        uint256 value\n    ) private {\n        balanceOf[from] = balanceOf[from].sub(value);\n        balanceOf[to] = balanceOf[to].add(value);\n        emit Transfer(from, to, value);\n    }\n\n    function approve(address spender, uint256 value) external returns (bool) {\n        _approve(msg.sender, spender, value);\n        return true;\n    }\n\n    function transfer(address to, uint256 value) external returns (bool) {\n        _transfer(msg.sender, to, value);\n        return true;\n    }\n\n    function transferFrom(\n        address from,\n        address to,\n        uint256 value\n    ) external returns (bool) {\n        if (allowance[from][msg.sender] != uint256(-1)) {\n            allowance[from][msg.sender] = allowance[from][msg.sender].sub(\n                value\n            );\n        }\n        _transfer(from, to, value);\n        return true;\n    }\n\n    function permit(\n        address owner,\n        address spender,\n        uint256 value,\n        uint256 deadline,\n        uint8 v,\n        bytes32 r,\n        bytes32 s\n    ) external {\n        require(deadline >= block.timestamp, \"bathToken: EXPIRED\");\n        bytes32 digest = keccak256(\n            abi.encodePacked(\n                \"\\x19\\x01\",\n                DOMAIN_SEPARATOR,\n                keccak256(\n                    abi.encode(\n                        PERMIT_TYPEHASH,\n                        owner,\n                        spender,\n                        value,\n                        nonces[owner]++,\n                        deadline\n                    )\n                )\n            )\n        );\n        address recoveredAddress = ecrecover(digest, v, r, s);\n        require(\n            recoveredAddress != address(0) && recoveredAddress == owner,\n            \"bathToken: INVALID_SIGNATURE\"\n        );\n        _approve(owner, spender, value);\n    }\n}\n",
  "sourcePath": "/Users/platocrat/Documents/GitHub/OptimismPBC/RubiconDeFi/rubicon_protocol/contracts/rubiconPools/BathToken.sol",
  "compiler": {
    "name": "solc",
    "version": "0.7.6+commit.7338295f.Emscripten.clang"
  },
  "schemaVersion": "3.3.1",
  "updatedAt": "2021-09-09T01:27:40.848Z",
  "devdoc": {
    "kind": "dev",
    "methods": {
      "initialize(string,address,address,address,address)": {
        "details": "Proxy-safe initialization of storage"
      }
    },
    "version": 1
  },
  "userdoc": {
    "kind": "user",
    "methods": {
      "underlyingBalance()": {
        "notice": "returns the amount of underlying ERC20 tokens in this pool in addition to         any tokens that may be outstanding in the Rubicon order book"
      }
    },
    "version": 1
  }
}